:020000020000FC
:100000000FEF0DBF08E00EBF00E80093610004E0B1
:10001000009361000FEF07B900E008B90FEF0AB9CC
:1000200000E004B90FEF05B9B1E0A0E00EE70D93D1
:1000300000E30D930DE60D9309E70D9303E30D9394
:100040000BE50D930FE50D9300E70D930FE70D936F
:100050000BE70D9307E70D930FE10D930EE40D935E
:100060000DE30D930FE40D9307E40D93B1E0A0E0D1
:100070007C917BB91FEF0E94870040E050E060E078
:1000800090E025B320FD09C003B11017D1F30E9401
:100090008C0003B11017A9F30AC0A89A0FE906BD96
:1000A00043954A3071F744270E946000EACF102F31
:1000B00000FF0E94710001FF0E947C007BB9E1CF2C
:1000C000561739F05F3051F05395C92FC50FC8B995
:1000D000089550E0C0E19C2798B9089550E098B980
:1000E0000895773421F07D917C9163950895B1E076
:1000F000A0E07C91662708957E3721F07E917C9167
:100100006A950895B1E0AFE07C916FE0089505E055
:1001100005BD0FE906BD08958FEF8A95F1F78FEFC2
:02012000089540
:00000001FF
